:020000040800F2
:1000000000000220193E0008790F00087B0F00084D
:100010007D0F00087F0F0008810F0008000000001E
:100020000000000000000000000000003136000861
:10003000830F000800000000D136000835370008A3
:10004000693E0008693E0008693E0008693E0008F4
:10005000693E0008693E0008693E0008693E0008E4
:10006000693E0008693E0008693E0008693E0008D4
:10007000693E0008850F0008693E0008693E0008D7
:10008000693E0008693E0008693E00080000000063
:10009000000000000000000000000000693E0008B1
:1000A000693E0008950F0008693E0008693E000897
:1000B000693E0008A50F0008693E0008693E000877
:1000C000693E0008693E0008693E0008693E000874
:1000D000693E0008693E0008693E00080000000013
:1000E000693E0008693E0008693E00080000000003
:1000F000000000000000000000000000693E000851
:1001000000000000693E0008693E0008693E0008E2
:1001100000000000000000000000000000000000DF
:10012000693E0008693E0008693E0008693E000813
:10013000693E000800000000000000000000000010
:10014000000000000000000000000000693E000800
:10015000693E0008693E0008693E0008693E0008E3
:10016000693E0008693E0008000000000000000031
:10017000000000000000000000000000000000007F
:1001800000000000693E00080000000000000000C0
:08019000693E0008693E000809
:1001A00053B94AB9002908BF00281CBF4FF0FF31DE
:1001B0004FF0FF3000F00CB8ADF1080C6DE904CE43
:1001C00003F080FEDDF804E0DDE9022304B07047AF
:1001D000704700BF10B5054C227832B9044B13B1FB
:1001E0000448AFF300800123237010BD24000020D9
:1001F000000000007041000808B5034B1BB1034923
:100200000348AFF3008008BD000000002800002074
:100210007041000808B50B480B4B03604FF4827324
:10022000436000238360C360036143614FF4007245
:100230008261C3610362436283620A23C36203F083
:10024000B1FB08BDE03F0020003800402DE9F0433D
:100250008BB00024059406940794089409940194A3
:10026000364B1A6B42F080021A631A6B02F080025E
:100270000192019A02941A6B42F004021A631A6BFB
:1002800002F004020292029A03941A6B42F00102F5
:100290001A631A6B02F001020392039A04941A6B18
:1002A00042F002021A631B6B03F002030493049BE7
:1002B000234D22460321284602F0A3F9DFF8888067
:1002C00022460421404602F09CF9032705974FF08F
:1002D0000109CDF818900794089405A9284602F062
:1002E0002DF8D023059306940794164E05A93046A1
:1002F00002F024F804230593CDF81890079408948D
:1003000005A9404602F01AF84FF4A073059306942D
:10031000079405A9284602F011F84FF4C06305932D
:1003200002230693079408970723099305A93046EB
:1003300002F004F80BB0BDE8F08300BF00380240C3
:1003400000080240000002400004024000B583B0F3
:1003500000220192094B196B41F4001119631B6BC8
:1003600003F400130193019B05210D2002F020FBF3
:100370000D2002F051FB03B05DF804FB0038024091
:1003800070B584B0002500950195029503950F4C3A
:100390000F4B23606560A5602561257684F82050A9
:1003A000E5620C4BA362E5600126E66184F83050FB
:1003B0006661204601F042F8009501960295694673
:1003C000204601F067F804B070BD00BFCC400020AB
:1003D000002001400100000F08B50948094B0360E7
:1003E000094B436000238360C3604FF48042026185
:1003F00043618361C361036201F01EF908BD00BF60
:100400003840002000540040A086010030B58BB079
:10041000002408940994019402940394049405948C
:1004200006940794104D114B2B606C60AC606823F0
:10043000EB602C61AC61284601F092FB08940994B2
:1004400008A9284601F046FC602301930294039416
:1004500005940C2201A9284601F0CEFB284600F0A5
:10046000EDFE0BB030BD00BF8C400020000400400A
:1004700008B5012002F070FFFBE708B500F0CAFAEA
:1004800000F0C6FC00F0D0FA08BD00002DE9F043F2
:1004900087B0AB4803F0C6FA10B107B0BDE8F083EF
:1004A000A7480023C36103F07DFA0028F5D100F0CE
:1004B00061FC0024EF2C0FDCA5B24FF47842002140
:1004C000284600F0A9FB4FF4784240F23F1128463D
:1004D00000F0A2FB0134EDE70024B4F5A07F0EDAB2
:1004E000A5B24FF478422946002000F095FB4FF466
:1004F00078422946EF2000F08FFB0134EDE740F60B
:10050000B83002F0C3FA002000F034FC8D4B002418
:1005100002944FF47848CDF804805A6800921B6822
:10052000894A2146204600F09AFB884D02944FF4F8
:10053000FC6701976B6800932B68854A1E21204653
:1005400000F08DFB834B02944FF01F09CDF804900F
:100550005A6800921B68804A5421204600F07FFBB5
:100560004FF47A7002F092FA012000F03AFC4FF456
:100570007A7002F08BFA204600F033FC41F28830AA
:1005800002F084FA4FF6FF7000F0F4FB4FF6FF76AE
:10059000029601946B6800932B68704A21462046AE
:1005A00000F05DFB4FF4FA7002F070FA484600F07C
:1005B000E1FBCDF8089001946B6800932B68684AC2
:1005C0002146204600F04BFB4FF4FA7002F05EFA31
:1005D000404600F0CFFBCDF8088001946B68009393
:1005E0002B68604A2146204600F039FB4FF4FA7030
:1005F00002F04CFA384600F0BDFB029701946B689C
:1006000000932B68584A2146204600F028FB4FF4FF
:10061000FA7002F03BFA40F2FF7000F0ABFB40F2E0
:10062000FF73029301946B6800932B684F4A214635
:10063000204600F014FB4FF4FA7002F027FA4FF650
:100640001F0000F097FB4FF61F03029301946B68A5
:1006500000932B68464A2146204600F000FB4FF4E9
:10066000FA7002F013FA4FF6E07000F083FB4FF6D9
:10067000E073029301946B6800932B683D4A214616
:10068000204600F0ECFA4FF4FA7002F0FFF9204631
:1006900000F070FB029401966B6800932B68364A59
:1006A0002146204600F0DBFA4FF4FA7002F0EEF932
:1006B000324B0093F0231A462821204600F067FBB6
:1006C00040F6B83002F0E2F9204600F053FB029405
:1006D00001966B6800932B68294A2146204600F05A
:1006E000BEFA4FF47A7002F0D1F9204600F042FBD6
:1006F000134803F097F900287FF4CFAE1048302359
:10070000C36103F04FF900287FF4C7AE42F20F73C4
:100710009C423FF7C2AE0DF1160105A800F08EFB1A
:100720000028F3D0BDF81610C1F5A0714FF6FF7286
:1007300089B2BDF8140000F06FFA0134E6E700BF9B
:10074000E03F002010000020D04100080000002001
:1007500004420008080000203442000864420008F7
:100760006C42000874420008784200088042000889
:10077000884200089042000898420008C0420008E1
:10078000A042000810B594B03022002108A803F060
:1007900091FB002403940494059406940794019417
:1007A000154B1A6C42F080521A641B6C03F0805394
:1007B0000193019B0294114B1A6842F440421A6063
:1007C0001B6803F440430293029B02230893012316
:1007D0000B9310230C930E9408A801F0A1FA0F2399
:1007E00003930494059406940794214603A801F00A
:1007F000B3FC14B010BD00BF0038024000700040D0
:1008000000B589B002F016F9FFF7BCFFFFF71EFD37
:10081000FFF79CFDFFF7B4FDFFF7DEFDFFF7FAFCE5
:10082000FFF7F4FDFFF729FEFFF730FE01AC084D9E
:100830000FCD0FC495E8070084E80700002101A848
:1008400002F055FD034B186002F04CFDFEE700BFBF
:1008500088410008DC3F002008B50268034B9A423B
:1008600000D008BD02F000F9FBE700BF0000014026
:100870007047000008B500224021024801F0C1FE87
:1008800008BD00BF0004024010B5074C00228021C3
:10089000204601F0B6FE052002F0F8F80122802182
:1008A000204601F0AEFE10BD0008024000B583B046
:1008B0008DF8070000224FF40071074801F0A1FEF7
:1008C0004FF0FF3301220DF10701044803F0C0F897
:1008D00003B05DF804FB00BF00000240E03F0020D1
:1008E00070B506460D4601224FF400710A4801F02A
:1008F00088FE85B12C46B5F5004F28BF4FF4004463
:10090000A4B24FF0FF3322463146044803F0A0F86A
:1009100026442D1BEDE770BD00000240E03F0020A3
:10092000F0B583B007460D4616461C462A20FFF751
:10093000BDFF3B0A8DF804308DF80570330A8DF841
:1009400006308DF8076004210DEB0100FFF7C8FFAA
:100950002B20FFF7ABFF2B0A8DF804308DF80550E4
:10096000230A8DF806308DF8074004210DEB0100B5
:10097000FFF7B6FF2C20FFF799FF03B0F0BD82B060
:100980002DE9F04383B091460B93BDF83470BDF868
:10099000386050FA83F292B2C3F307230B449BB240
:1009A000013B013A9BB292B2FFF7BAFF4FF0000849
:1009B0001EE0330A8DF804308DF80560022101A88D
:1009C000FFF78EFF01349DF82C30A3420ED905FAB3
:1009D00004F313F4004FECD03B0A8DF804308DF88B
:1009E0000570022101A8FFF77BFFEBE708F1010882
:1009F0009DF82D20424508D9A9F1200302FB03836D
:100A00000C9A32F813500024DDE703B0BDE8F04340
:100A100002B0704708B501224021024801F0F1FD03
:100A200008BD00BF00040240F0B585B0FFF722FF0B
:100A3000FFF72AFF0120FFF739FF4FF47A7002F029
:100A400025F8CB20FFF732FF6F4C94E803000090AD
:100A50008DF8041005216846FFF742FFCF20FFF70D
:100A600025FFA368ADF800301B0C8DF80230032180
:100A70006846FFF735FFE820FFF718FFE368ADF899
:100A800000301B0C8DF8023003216846FFF728FF69
:100A9000EA20FFF70BFF0025ADF800500221684661
:100AA000FFF71EFFED20FFF701FF584B00930421D5
:100AB0006846FFF715FFF720FFF7F8FE20238DF8B3
:100AC000003001216846FFF70BFFC020FFF7EEFE64
:100AD00023238DF8003001216846FFF701FFC12074
:100AE000FFF7E4FE10238DF8003001216846FFF780
:100AF000F7FEC520FFF7DAFE42F63E03ADF8003000
:100B000002216846FFF7ECFEC720FFF7CFFE8623E1
:100B10008DF8003001216846FFF7E2FE3620FFF72E
:100B2000C5FE48268DF8006001216846FFF7D8FE13
:100B30003A20FFF7BBFE55238DF8003001216846AF
:100B4000FFF7CEFEB120FFF7B1FE4FF4C053ADF872
:100B5000003002216846FFF7C3FEB620FFF7A6FE6D
:100B60002B4B1B68ADF800301B0C8DF802300321B5
:100B70006846FFF7B5FEF220FFF798FE8DF80050AB
:100B800001216846FFF7ACFE2620FFF78FFE012704
:100B90008DF8007039466846FFF7A2FEE020FFF7A7
:100BA00085FE1C4B6D460FCB07C525F8023B1B0C81
:100BB0002B700F216846FFF793FEE120FFF776FECA
:100BC0006D46103494E80F0007C525F8023B1B0C56
:100BD0002B700F216846FFF783FE1120FFF766FE9A
:100BE000782001F053FF2920FFF760FE3620FFF741
:100BF0005DFE8DF8006039466846FFF771FEFFF72D
:100C000009FF05B0F0BD00BFA441000864031281D4
:100C1000C0040208C4040208EF281FD870B582B0CF
:100C200004460D461646B1F5A07F01D302B070BD53
:100C3000FFF720FE6B1C621C9BB292B22946204635
:100C4000FFF76EFE330A8DF804308DF8056002213F
:100C500001A8FFF745FEFFF7DDFEE7E7704782B02A
:100C60002DE9F04385B006460D4617460D93BDF8B5
:100C70003C90BDF84080FFF7FDFD10E001370026F5
:100C80000DE0CDF80880CDF804900E9B00930D9BED
:100C900029463046FFF773FE3444A6B201373A784E
:100CA00082B19DF834403319EF2BEADD9DF83530E1
:100CB0001D44ADB22B44B3F5A07F03DA202ADDD06A
:100CC0000026DEE7FFF7A6FE05B0BDE8F04302B060
:100CD000704700002DE9F04182B0BDF82080EF2878
:100CE00040D804460F4616461D46B1F5A07F39D2BE
:100CF0008318F02B02DDC0F1F006B6B27B19B3F514
:100D0000A07F02DDC7F5A075ADB2FFF7B3FD3219C4
:100D100092B2EB199BB2013B013A9BB292B23946B7
:100D20002046FFF7FDFD4FEA18238DF804308DF8BB
:100D3000058001224FF400710C4801F062FC0CE0C8
:100D40004FF0FF33022201A9094802F081FE013C65
:100D5000A4B2002CF4D1013DADB20DB13446F8E798
:100D6000FFF758FE02B0BDE8F08100BF000002406E
:100D7000E03F002000B583B000904FF4A073F02254
:100D800000210846FFF7A6FF03B05DF804FBEF283B
:100D900026D8F8B504460D4617461E46B1F5A07F85
:100DA00006D28318F02B03DC8B19B3F5A07F00DD8E
:100DB000F8BDFFF75FFDE21992B2AB199BB2013BA0
:100DC000013A9BB292B229462046FFF7A9FD06FBE5
:100DD00007F149000698FFF783FDFFF71BFEE7E7E1
:100DE000704710B50446FFF745FD2CB12120FFF7F1
:100DF0005DFDFFF70FFE10BD2020F8E708B50022CB
:100E00004FF48061014801F0FCFB08BD0000024086
:100E100008B501224FF48061014801F0F2FB08BDE2
:100E20000000024008B51021034801F0E3FBB0FACE
:100E300080F0400908BD00BF000402402DE9F04FDA
:100E400087B083460391FFF7D9FF00242646A146C9
:100E5000A2460F2C35D8FFF7E5FF90B30136F6B266
:100E6000394D4FF0FF3301223849284602F0F0FD9A
:100E7000DFF8E8804FF0FF370097022304AA4146CD
:100E8000284602F0B3FE3B4601223149284602F0D3
:100E9000DFFD0097022305AA4146284602F0A6FE80
:100EA0009DF814209DF8153043EA02239A449DF8DA
:100EB00010209DF8113043EA022399440134E4B232
:100EC000C7E7FFF7A5FF0F2E3CD94FEA1A1245F6E8
:100ED000BF539A4506D947F618139A4204D947F6E4
:100EE000181201E040F2DC524FEA191345F6BF51E7
:100EF000894506D947F29E518B4204D947F29E5349
:100F000001E040F6CC43C2EB02121201A2F5AF227F
:100F1000A2F5C8620F49A1FB0212920BABF80020A8
:100F200003EB83039B01A3F57F23A3F570635B08A9
:100F3000094AA2FB03239B0A039A1380012007B0EE
:100F4000BDE8F08F0020FAE7E03F0020D804020857
:100F5000D404020827072E8E55C78913DC04020823
:100F6000034B0360034B0B6080231360704700BF8B
:100F700040020020400000207047FEE7FEE7FEE749
:100F8000FEE7704708B5024801F012FC08BD00BF3B
:100F90001441002008B5024800F0BCFC08BD00BFA9
:100FA0007441002008B5024800F0B4FC08BD00BF41
:100FB0008C40002000B583B0002200920D4B596C8C
:100FC00041F480415964596C01F4804100910099C9
:100FD0000192196C41F0805119641B6C03F080532D
:100FE0000193019B0F216FF0010001F0E1FC03B0C0
:100FF0005DF804FB0038024000B589B0002303937C
:101000000493059306930793026803F1804303F565
:1010100090339A4202D009B05DF804FB002101919F
:1010200003F58C335A6C42F480725A645A6C02F4A1
:1010300080720192019A02911A6B42F001021A63C6
:101040001B6B03F001030293029B0F230393032303
:10105000049303A9014801F071F9DCE700000240A4
:1010600030B589B000230393049305930693079347
:101070000268154B9A4201D009B030BD0025019598
:10108000124C236B43F002032363236B03F0020330
:101090000193019BC023039312230493012305931F
:1010A000032306930423079303A9094801F046F993
:1010B0000295236C43F400132364236C03F40013A0
:1010C0000293029BD8E700BF005400400038024062
:1010D00000040240F0B589B0002303930493059304
:1010E0000693079302681F4B9A4201D009B0F0BDE6
:1010F0000024009403F500331A6C42F480421A6411
:101100001A6C02F480420092009A01941A6B42F029
:1011100002021A631A6B02F002020192019A02940F
:101120001A6B42F004021A631B6B03F00403029370
:10113000029B4FF44043039302270497032606962D
:101140000525079503A9084801F0F8F880230393C3
:10115000049705940696079503A9044801F0EEF854
:10116000C4E700BF0038004000040240000802400D
:1011700008B50268094B9A4200D008BD084A136CB2
:1011800023F4804313644FF44041064801F0AAF968
:101190008021054801F0A6F9EFE700BF00380040C4
:1011A00000380240000402400008024002681F4B61
:1011B0009A4200D0704710B582B0044600230193D4
:1011C0001B4A116C41F002011164126C02F0020220
:1011D0000192019A1748184A02604FF0206242605B
:1011E00040228260C3604FF4806202614FF48052FB
:1011F00042614FF4804282614FF48072C2610362A7
:10120000436201F06FFA68B90A4B236323629C635F
:10121000002205211D2001F0CBFB1D2001F0FCFB6D
:1012200002B010BDFFF724FBEEE700BF0004004052
:1012300000380240144100204060024000B587B0F1
:1012400000230193029303930493059302680D4BCB
:101250009A4202D007B05DF804FB002300930A4BCA
:101260001A6B42F002021A631B6B03F00203009335
:10127000009B022301930293059301A9034801F007
:101280005DF8E7E700040040003802400004024037
:1012900010B588B001460022192001F089FB192001
:1012A00001F0BAFB00240194134B5A6C42F0010286
:1012B0005A645B6C03F001030193019B02A903A82C
:1012C00001F01EF801F00CF80C4BA3FB00239B0C63
:1012D000013B0B480B4A026040F2E732C2604360B8
:1012E0000461846000F022FC10B1012008B010BD40
:1012F000034800F0FAFAF9E70038024083DE1B43A6
:1013000074410020000001404A4B5A6822F44032E8
:101310005A605A6841680A435A600268536823F465
:101320008073536002685368016943EA0123536084
:101330000268536823F04073536002685368816801
:101340000B4353600268936823F400639360026860
:101350009368C1680B439360826A374B9A4257D0B7
:101360000268936823F07063936002689368816AEF
:101370000B4393600268936823F0405393600268C4
:101380009368C16A0B4393600268936823F0020379
:10139000936002689368017E43EA4103936090F88A
:1013A0002030002B3FD00268536843F40063536041
:1013B0000268536823F46043536001684B68426AD3
:1013C000013A43EA42334B600268D36A23F4700364
:1013D000D3620168CB6AC269013A43EA0253CB6225
:1013E0000268936823F4007393600268936890F82E
:1013F000301043EA412393600268936823F48063CA
:10140000936002689368416943EA8123936070475F
:101410000268936823F0706393600268936823F016
:1014200040539360B0E70268536823F4006353604D
:10143000CAE700BF002301400100000F38B310B518
:101440000446036C43B1236C13F0100F0BD0012042
:10145000002384F83C3010BDFFF7CEFD0023636409
:1014600084F83C30EFE7236C23F4885323F0020325
:1014700043F0020323642046FFF746FF0020606428
:10148000236C23F0030343F001032364E0E701200E
:101490007047000030B482B00023019390F83C30D4
:1014A000012B00F0BD80012380F83C300B68092B34
:1014B0003ED90568EA689BB203EB43031E3B072451
:1014C00004FA03F322EA0303EB600568EA688C6818
:1014D0000B8803EB43031E3B04FA03F31343EB6057
:1014E0004B68062B3AD805686A6B03EB8303053B10
:1014F0001F2404FA03F322EA03036B6305686A6B93
:101500004B6803EB8303053B0C8804FA03F3134396
:101510006B630268434B9A4250D00268414B9A4237
:1015200059D0002380F83C30184602B030BC7047D8
:1015300005682A699BB203EB4303072404FA03F30B
:1015400022EA03032B6105682A698C680B8803EB88
:10155000430304FA03F313432B61C1E70C2B16D8A2
:1015600005682A6B03EB8303233B1F2404FA03F370
:1015700022EA03032B6305682A6B4B6803EB8303A2
:10158000233B0C8804FA03F313432B63C1E705687C
:10159000EA6A03EB8303413B1F2404FA03F322EAC4
:1015A0000303EB620568EA6A4B6803EB8303413B84
:1015B0000C8804FA03F31343EB62AAE70B68122BBF
:1015C000ABD1194B5A6822F400025A605A6842F4AF
:1015D00080025A60A1E70B68144A934201D0112B94
:1015E0009FD1114B5A6822F480025A605A6842F423
:1015F00000025A600A680D4B9A4292D10C4B1B684C
:101600000C4AA2FB03239B0C03EB83035B000193B7
:1016100002E0019B013B0193019B002BF9D180E784
:10162000022082E700200140002301401200001048
:101630001C00002083DE1B43002800F0C280F8B5A8
:10164000044690F83D30002B6DD0242384F83D30C3
:101650002268136823F00103136000F031FE626812
:101660005A4B9A4264D85A4B98428CBF00230123AC
:10167000002B40F0A880574DA5FB0035AF0C266825
:10168000716821F03F0141EA9541716021680B6A60
:1016900023F03F0365684D4A95424FD87A1C1343A7
:1016A0000B622568E96921F44F4121F0FF0163686D
:1016B000464A93424CD801385B00B0FBF3F001304E
:1016C00040F6FC73184278D0C0F30B030B43EB6178
:1016D00021680B6823F0C003E269206A02431343C8
:1016E0000B6021688B6823F4034323F0FF03226916
:1016F000E068024313438B602168CB6823F0FF034B
:101700006269A06902431343CB602268136843F007
:101710000103136000202064202384F83D302063FF
:1017200084F83E00F8BD80F83C30FFF799FC8CE768
:10173000294B98428CBF0023012399E74FF49672FE
:1017400002FB07F2254DA5FB025292090132A6E7E2
:10175000A268BAB9461E03EB4307B6FBF7F601369B
:10176000C6F30B06B6FA86F6760946BBC2B9421E28
:1017700003EB4303B2FBF3F20132C2F30B0242F478
:101780000043A3E7461E03EB830707EB8707B6FB7F
:10179000F7F60136C6F30B06B6FA86F67609E4E7E5
:1017A000421E03EB830303EB8303B2FBF3F201322C
:1017B000C2F30B0242F4404388E7042386E7012387
:1017C00084E7012070470120ACE700BFA08601003C
:1017D0007F841E0083DE1B43FF083D00D34D621053
:1017E00070B4036A23F001030362036A46688269E6
:1017F00022F073020C6844EA020523F002028B68AF
:1018000013430D4CA04209D00B4CA0420DD04660B2
:1018100085614A684263036270BC704723F0080325
:10182000CA68134323F00403EEE726F440764A69BE
:1018300032438E691643EAE70000014030B4036A80
:1018400023F480730362036A4568C26922F073025D
:101850000C68224323F400738C6843EA04230F4C82
:10186000A04209D00D4CA0420ED04560C2614A682A
:10187000C263036230BC704723F40063CC6843EA60
:10188000042323F48063EDE725F440554C6945EAD1
:1018900004158C6945EA0415E7E700BF0000014024
:1018A00030B4036A23F480530362036A4468C26954
:1018B00022F4E6420D6842EA052223F400538D68C3
:1018C00043EA0533074DA84206D04460C2614A6826
:1018D0000264036230BC704724F480444D6944EADA
:1018E0008514F2E70000014070470268D36843F0B6
:1018F0000103D3600268936803F00703062B03D04B
:10190000136843F00103136000207047704770476D
:101910007047704710B5044603681A6912F0020F49
:1019200011D0DA6812F0020F0DD06FF002021A61C6
:101930000123037703689B6913F0030F70D0FFF74F
:10194000E6FF0023237723681A6912F0040F12D0F0
:10195000DA6812F0040F0ED06FF004021A6102234D
:10196000237723689B6913F4407F5FD02046FFF7FD
:10197000CEFF0023237723681A6912F0080F12D0D4
:10198000DA6812F0080F0ED06FF008021A61042313
:1019900023772368DB6913F0030F4ED02046FFF74F
:1019A000B6FF0023237723681A6912F0100F12D0B4
:1019B000DA6812F0100F0ED06FF010021A610823CF
:1019C00023772368DB6913F4407F3DD02046FFF77F
:1019D0009EFF0023237723681A6912F0010F03D0BA
:1019E000DA6812F0010F36D123681A6912F0800FFD
:1019F00003D0DA6812F0800F34D123681A6912F02C
:101A0000400F03D0DA6812F0400F32D123681A6910
:101A100012F0200F03D0DA6812F0200F30D110BD81
:101A2000FFF774FF2046FFF773FF8AE72046FFF7B2
:101A30006DFF2046FFF76CFF9BE72046FFF766FF30
:101A40002046FFF765FFACE72046FFF75FFF204623
:101A5000FFF75EFFBDE76FF001021A612046FEF757
:101A6000FBFEC1E76FF080021A61204600F056F9D4
:101A7000C3E76FF040021A612046FFF74AFFC5E74F
:101A80006FF020021A61204600F047F9C7E7000016
:101A90000368254A90420ED0B0F1804F0BD0A2F5DA
:101AA0007C42904207D002F58062904203D002F55A
:101AB0008062904203D123F070034A6813431A4AAC
:101AC00090421AD0B0F1804F17D0A2F57C429042DC
:101AD00013D002F5806290420FD002F580629042EE
:101AE0000BD002F59A32904207D002F58062904204
:101AF00003D002F58062904203D123F44073CA6898
:101B0000134323F080034A69134303608B68C36265
:101B10000B688362044B984202D0012343617047F3
:101B20000B690363F9E700BF00000140B0B110B5D5
:101B3000044690F83D3063B1022384F83D302146DD
:101B400051F8040BFFF7A4FF012384F83D30002077
:101B500010BD80F83C30FFF7C7FEEDE7012070476D
:101B6000B0B110B5044690F83D3063B1022384F85B
:101B70003D30214651F8040BFFF78AFF012384F81A
:101B80003D30002010BD80F83C30FFF70FFBEDE743
:101B90000120704730B4036A23F010030362036A24
:101BA0004468826922F4E6420D6842EA052223F085
:101BB00020038D6843EA05130E4DA84209D00D4D50
:101BC000A8420ED0446082614A688263036230BCDE
:101BD000704723F08003CD6843EA051323F04003E8
:101BE000EDE724F440644D6944EA85048D6944EAD4
:101BF0008504E7E70000014038B590F83C30012B40
:101C000066D004460D46012380F83C30022380F85C
:101C10003D300C2A1AD8DFE802F0071919192019EB
:101C200019193419191947000068FFF7D9FD2268FE
:101C3000936943F0080393612268936923F00403D6
:101C400093612268936929690B439361012384F8A6
:101C50003D30002084F83C0038BD0068FFF79AFF53
:101C60002268936943F4006393612268936923F4C3
:101C70008063936122689369296943EA0123936130
:101C8000E4E70068FFF7DAFD2268D36943F0080350
:101C9000D3612268D36923F00403D3612268D36936
:101CA00029690B43D361D1E70068FFF7F9FD22688A
:101CB000D36943F40063D3612268D36923F480635A
:101CC000D3612268D369296943EA0123D361BDE75F
:101CD0000220C1E790F83C30012B1CD070B40126E3
:101CE00080F83C60022380F83D30026855689368B4
:101CF00025F070050C682C4323F080054B682B43BE
:101D000054600268936080F83D60002380F83C30A6
:101D1000184670BC7047022070477047704700003B
:101D2000002800F0B98170B582B00446036813F052
:101D3000010F3BD0A64B9B6803F00C03042B2CD067
:101D4000A34B9B6803F00C03082B21D06368B3F509
:101D5000803F4FD0B3F5A02F52D09D4B1A6822F48C
:101D600080321A601A6822F480221A606368002B9D
:101D700050D000F085FE0546954B1B6813F4003FDC
:101D800014D100F07DFE401B6428F5D903208AE1C0
:101D90008F4B5B6813F4800FD8D08D4B1B6813F406
:101DA000003F03D06368002B00F07881236813F0B4
:101DB000020F54D0864B9B6813F00C0F3ED0844B1F
:101DC0009B6803F00C03082B33D0E368002B67D02B
:101DD000804B01221A6000F053FE05467C4B1B68C5
:101DE00013F0020F53D100F04BFE401B0228F5D92F
:101DF000032058E1764A136843F480331360B5E753
:101E0000734B1A6842F480221A601A6842F48032D6
:101E10001A60ABE700F034FE05466D4B1B6813F407
:101E2000003FC3D000F02CFE401B6428F5D90320EE
:101E300039E1674B5B6813F4800FC6D1644B1B68B4
:101E400013F0020F03D0E368012B40F02981604AB0
:101E5000136823F0F803216943EAC1031360236880
:101E600013F0080F40D0636963B35B4B01221A6023
:101E700000F006FE0546564B5B6F13F0020F33D1A0
:101E800000F0FEFD401B0228F5D903200BE1504A6B
:101E9000136823F0F803216943EAC1031360DEE706
:101EA0004C4B00221A6000F0EBFD0546484B1B68C6
:101EB00013F0020FD3D000F0E3FD401B0228F5D948
:101EC0000320F0E0444B00221A6000F0D9FD0546E3
:101ED0003F4B5B6F13F0020F06D000F0D1FD401BAB
:101EE0000228F5D90320DEE0236813F0040F78D030
:101EF000374B1B6C13F0805F0DD100230193344BE3
:101F00001A6C42F080521A641B6C03F080530193E8
:101F1000019B012500E00025304B1B6813F4807FF6
:101F200021D0A368012B32D0052B36D0284B1A6F55
:101F300022F001021A671A6F22F004021A67A368DE
:101F4000002B34D000F09CFD0646214B1B6F13F094
:101F5000020F45D100F094FD801B41F28833984276
:101F6000F3D903209FE01D4A136843F48073136084
:101F700000F086FD0646194B1B6813F4807FD0D114
:101F800000F07EFD801B0228F5D903208BE0104A6B
:101F9000136F43F001031367D1E70D4B1A6F42F043
:101FA00004021A671A6F42F001021A67C7E700F0CD
:101FB00067FD0646064B1B6F13F0020F10D000F0B2
:101FC0005FFD801B41F288339842F3D903206AE019
:101FD0000038024000004742800E47420070004037
:101FE000E5B9A369002B5DD0314A926802F00C027A
:101FF000082A5AD0022B17D02E4B00221A6000F06C
:102000003FFD04462A4B1B6813F0007F42D000F0CE
:1020100037FD001B0228F5D9032044E0244A136C45
:1020200023F080531364DCE7224B00221A6000F097
:1020300027FD05461E4B1B6813F0007F06D000F0FD
:102040001FFD401B0228F5D903202CE0E369226A1A
:102050001343626A43EA8213A26A5208013A43EACE
:102060000243E26A43EA0263114A5360114B0122C0
:102070001A6000F005FD04460D4B1B6813F0007F4D
:1020800006D100F0FDFC001B0228F5D903200AE070
:10209000002008E0002006E001207047012002E057
:1020A000012000E0002002B070BD0120FBE700BF6E
:1020B0000038024060004742F8B5244B9B6803F0AB
:1020C0000C03042B3DD0082B3DD1204B5A6802F065
:1020D0003F025B6813F4800F12D01C4B5968C1F3A8
:1020E000881100231A48A1FB0001FEF759F8174B8D
:1020F0005B68C3F3014301335B00B0FBF3F023E003
:10210000124B5B68C3F388135C010025E41A65F188
:102110000005AE0146EA9466A701381B66EB05018F
:10212000CC0044EA5074C500E81844F100018B0269
:1021300043EA90538402204619460023FEF730F804
:10214000D5E7034800E00348F8BD00BF003802406F
:1021500040787D010024F400002800F09A8070B5DA
:102160000D4604464F4B1B6803F00F038B4208D209
:10217000CBB24C4A1370136803F00F038B4240F04C
:102180008A80236813F0020F17D013F0040F04D0D5
:10219000454A936843F4E0539360236813F0080FB3
:1021A00004D0414A936843F4604393603E4A936885
:1021B00023F0F003A1680B439360236813F0010F31
:1021C00032D06368012B21D09A1E012A25D9364AC4
:1021D000126812F0020F60D033498A6822F00302BD
:1021E00013438B6000F04CFC06462F4B9B6803F0BA
:1021F0000C036268B3EB820F16D000F041FC801B29
:1022000041F288339842F0D9032041E0264A12680F
:1022100012F4003FE0D101203AE0234A126812F0A4
:10222000007FD9D1012033E01E4B1B6803F00F0360
:10223000AB4207D9EAB21B4B1A701B6803F00F03BD
:10224000AB422CD1236813F0040F06D0164A9368D2
:1022500023F4E053E1680B439360236813F0080F05
:1022600007D0114A936823F46043216943EAC1030C
:102270009360FFF721FF0C4B9B68C3F303130B4ADA
:10228000D35CD8400A4B18600020FFF701F800200B
:1022900070BD012070470120FAE70120F8E7012016
:1022A000F6E700BF003C024000380240FC2C020868
:1022B0001C000020014B1868704700BF1C00002064
:1022C00008B5FFF7F7FF044B9B68C3F38223034A6B
:1022D000D35CD84008BD00BF003802400C2D020876
:1022E00008B5FFF7E7FF044B9B68C3F34233034A8B
:1022F000D35CD84008BD00BF003802400C2D020856
:102300000F2303600B4B9A6802F0030242609A6845
:1023100002F0F00282609A6802F4E052C2609B68A8
:10232000DB0803F4E0530361034B1B6803F00F0366
:102330000B60704700380240003C024000230F2B26
:1023400000F2C780F0B482B039E0042200E000223D
:10235000B2403A4302345F4E46F824205E4A146885
:10236000EA4324EA05064F6817F4803F01D045EAA6
:102370000406594C2660646802EA04064F6817F4A4
:10238000003F01D045EA0406534C6660A46802EAA7
:1023900004064F6817F4801F01D045EA04064E4C2E
:1023A000A660E46822404E6816F4001F01D045EA9A
:1023B0000402494CE26001330F2B00F287800122B6
:1023C0009A400C6804EA020532EA0404F3D14C682E
:1023D000022C01D0122C10D1DE08083650F826C08D
:1023E00003F00704A7000F24BC402CEA040C0C697E
:1023F000BC4044EA0C0440F82640D0F800C05E001F
:102400000324B440E7432CEA040C4C6804F00304B2
:10241000B44044EA0C0404604C6804F1FF3CBCF195
:10242000010F03D9112C01D0122C10D1846807EAB6
:10243000040CCC68B44044EA0C048460446824EA88
:1024400002024C68C4F300149C4014434460C26808
:1024500017408A68B2403A43C2604A6812F0805F0F
:10246000A9D0002201921D4A546C44F48044546463
:10247000526C02F480420192019A9C08A61C154AF3
:1024800052F8267003F0030296000F22B24027EAAA
:102490000207134A90423FF45AAF02F5806290421D
:1024A0000ED002F5806290420CD002F5806290421C
:1024B0000AD002F5806290423FF447AF072247E717
:1024C000012245E7022243E7032241E702B0F0BCC4
:1024D0007047704700380140003C0140003802401E
:1024E0000000024000230F2B7CD8F0B52DE004261D
:1024F00000E0002606FA04F4AC4257D005685C0000
:10250000032606FA04F425EA0405056023FA06F515
:10251000083550F8256003F007074FEA870C0F27AE
:1025200007FA0CF726EA070640F82560856825EAD1
:1025300004058560456825EA02024260C26822EA15
:102540000404C46001330F2B4BD801229A4002EAE5
:10255000010732EA0104F5D14FEA930C0CF10205B0
:10256000214C54F8255003F00304A4000F2606FA6A
:1025700004FE0EEA05051D4EB042BAD006F580668F
:10258000B0420DD006F58066B0420BD006F58066ED
:10259000B04209D006F58066B042A8D00726A9E768
:1025A0000126A7E70226A5E70326A3E70E4D0CF1B7
:1025B000020455F8246026EA0E0645F824600C4C07
:1025C000256825EA07052560656825EA0705656031
:1025D000A56825EA0705A560E56825EA0707E7601D
:1025E0008CE7F0BD704700BF00380140000002409A
:1025F000003C01400369194201D0012070470020CE
:1026000070470AB181617047090481617047000019
:1026100010B40368D9B210390C4AA2FB0142120966
:102620000B4CA25CC2655F2909D923F47F7323F0A8
:10263000030304338365806D5DF8044B704723F416
:102640007F7323F003038365F5E700BFABAAAAAA53
:10265000F42C0208836A826992B9012B0AD0022BFA
:1026600002D00BB100207047C36A13F0807F28D1DD
:1026700000207047C36AB3F1C07F24D000207047A8
:10268000B2F5005F09D0022B25D9032B25D1C36AEF
:1026900013F0807F23D100207047032B03D8DFE89D
:1026A00003F01404140A00207047C36A13F0807FFB
:1026B0000DD100207047C36AB3F1C07F09D000205C
:1026C00070470120704701207047012070470120AA
:1026D000704701207047012070470020704701209B
:1026E0007047000070B5044600F0CAF9002C5BD0BA
:1026F0000546002384F83430022384F835302268FC
:10270000136823F00103136023681A6812F0010FA5
:102710000AD000F0B5F9431B052BF5D920236365DA
:10272000032084F8350070BD1A68204810406168A5
:10273000A2680A43E1680A4321690A4361690A43BE
:10274000A1690A43E1690A43216A0A430243616AB3
:1027500004291ED01A602668756925F00705636A8A
:102760001D43042B07D1A36A1D43E36A1BB1204616
:10277000FFF770FF90B975612046FFF749FFE26DE2
:102780003F239340836000206065012384F8353047
:10279000C9E7E16A206B01430A43DBE74023636535
:1027A000012084F83500BEE70120BCE73F8010F02F
:1027B000F0B583B0044600230193724B1D68724B41
:1027C000A3FB0535AD0A876D3E68C26D08239340B3
:1027D000334210D003681A6812F0040F0BD01A6845
:1027E00022F004021A60C26D08239340BB60436D5F
:1027F00043F001034365E26D01239340334209D066
:102800002268526912F0800F04D0BB60636D43F000
:1028100002036365E26D04239340334209D02268CA
:10282000126812F0020F04D0BB60636D43F0040322
:102830006365E26D10239340334224D0226812680E
:1028400012F0080F1FD0BB6023681A6812F4802FA3
:102850000DD01B6813F4002F04D1236C9BB12046CC
:10286000984710E0A36C73B1204698470BE01A68B4
:1028700012F4807F03D11A6822F008021A60236CD8
:102880000BB120469847E26D20239340334255D048
:102890002268126812F0100F50D0BB6094F83530E7
:1028A000DBB2052B0ED023681A6812F4802F33D0C8
:1028B0001B6813F4002F2AD1636C002B3ED02046F6
:1028C00098473BE02268136823F0160313602268E0
:1028D000536923F080035361236CA3B1226813680A
:1028E00023F008031360E26D3F239340BB60002395
:1028F00084F83430012384F83530236D002B3FD029
:10290000204698473CE0A36C002BE7D1EBE7E36B54
:10291000A3B12046984711E01A6812F4807F09D1CC
:102920001A6822F010021A60002384F83430012360
:1029300084F83530E36B0BB120469847636DFBB1EB
:10294000636D13F0010F17D0052384F8353022682A
:10295000136823F001031360019B01330193AB4221
:1029600004D823681B6813F0010FF5D1002384F805
:102970003430012384F83530E36C0BB1204698479E
:1029800003B0F0BD1C000020B5814E1B074AD36880
:1029900023F4E0631B041B0C000200F4E06003431B
:1029A00043F0BF6343F40033D360704700ED00E0B1
:1029B00030B4174BDB68C3F30223C3F10704042CC4
:1029C00028BF04241D1D062D18D9033B4FF0FF35E9
:1029D00005FA04F421EA0401994005FA03F322EA16
:1029E0000303194300280BDB0901C9B200F1604061
:1029F00000F5614080F8001330BC70470023E5E724
:102A000000F00F000901C9B2024B1954F4E700BFEE
:102A100000ED00E014ED00E0002807DB00F01F02ED
:102A2000400901239340024A42F82030704700BF1A
:102A300000E100E008B50B4B1A6842F400721A601E
:102A40001A6842F480621A601A6842F480721A604E
:102A50000320FFF79BFF0020FEF71AFCFEF7AAFAFF
:102A6000002008BD003C0240034A1168034B1B785C
:102A70000B441360704700BFB441002018000020D1
:102A8000014B1868704700BFB441002038B50446B8
:102A9000FFF7F6FF0546B4F1FF3F02D0044B1B7869
:102AA0001C44FFF7EDFF401BA042FAD338BD00BF26
:102AB000180000200F49D1F8883043F47003C1F8A2
:102AC00088300D4B1A6842F001021A6000209860AD
:102AD0001A6822F0847222F480321A60074A5A601F
:102AE0001A6822F480221A60D8604FF000638B606D
:102AF000704700BF00ED00E00038024010300024B5
:102B000000F1080343604FF0FF328260C36003614D
:102B100000230360704700230361704743684B60E4
:102B20009A688A60516099600861036801330360A4
:102B3000704730B40D68B5F1FF3F11D000F10803C4
:102B40001C465B681A68AA42FAD963684B609960B0
:102B50008C606160086103680133036030BC7047BA
:102B60000469F2E70369416882688A6041685160DC
:102B70005A68824206D0002202611A68013A1A603D
:102B80001868704782685A60F5E70000084B1B68B8
:102B90001B6823B9074B4FF0FF321A607047044B94
:102BA0001B68DB68DB685A68024B1A60704700BF1D
:102BB000980200206C0300202DE9F04780469946DA
:102BC000089EDDF824A00A9D2F6B02F18042013A95
:102BD00007EB820727F0070700220F2A06D88C5C34
:102BE000AB1883F834400CB10132F6E7002385F8C6
:102BF0004330062E00D90626EE626E640024AC64D3
:102C0000281DFFF788FF05F11800FFF784FF2D61ED
:102C1000C6F10706AE616D62EC6485F850404A4625
:102C20004146384600F0ECFC2860BAF1000F01D0B4
:102C3000CAF80050BDE8F08738B5002407E004EB7F
:102C4000840293000E481844FFF75AFF0134062C03
:102C5000F5D90C4D2846FFF753FF0B4C2046FFF7E4
:102C60004FFF0A48FFF74CFF0948FFF749FF0948A3
:102C7000FFF746FF084B1D60084B1C6038BD00BFC6
:102C8000A002002044030020580300207403002009
:102C9000A00300208C030020980200209C0200204A
:102CA00010B5044600F0D6FC204A136801331360C7
:102CB0001F4B1B685BB11F4B1B686BB91C4B1B6820
:102CC000DA6AE36A9A4207D8194B1C6004E0184B91
:102CD0001C601368012B26D0174A13680133136058
:102CE000E06A01238340154A11680B43136000EB2F
:102CF0008000211D124B03EB8000FFF70FFF00F057
:102D0000CBFC0C4B1B686BB1094B1B68DA6AE36A9E
:102D10009A4207D20B4B4FF080521A60BFF34F8F8D
:102D2000BFF36F8F10BDFFF787FFD5E72C0300209F
:102D300094020020880300203C0300204003002070
:102D4000A002002004ED00E010B5044690F85130D8
:102D500063B1012B11D0022B0ED04FF0500383F33F
:102D60001188BFF36F8FBFF34F8FFEE7006B00F04A
:102D7000D1FB204600F0CEFB10BD00F0CBFBFBE703
:102D80000F4B1B68D3B110B500F064FC0D4BDB6832
:102D9000DC68201DFFF7E6FE0B4A1368013B136059
:102DA000074A1368013B136000F076FC2046FFF7EA
:102DB000CBFF034B1B68002BE6D110BD704700BF53
:102DC00030030020A00300202C03002008B5FFF7EB
:102DD000D7FF064B1B68012BF9D9054B4FF08052EA
:102DE0001A60BFF34F8FBFF36F8FF0E7A002002090
:102DF00004ED00E070B504460D461D4B1E681D4BEA
:102E000018680430FFF7AEFE50B91A4B1B68DA6A37
:102E1000012303FA02F218490B6823EA02030B604C
:102E2000B4F1FF3F0DD03444124B1B685C60A642E6
:102E300010D9124B18680F4B19680431FFF779FE4F
:102E400070BD002DEFD00B4B196804310C48FFF713
:102E500065FEF5E70B4B1868064B19680431FFF760
:102E600068FE094B1B68A342EAD9074B1C60E7E7E1
:102E7000B403002094020020400300209C020020A4
:102E80008C030020980200206C03002070B586B0EF
:102E90000B9D0C9C75B1B4B154260496049E542E1F
:102EA0001AD04FF0500383F31188BFF36F8FBFF335
:102EB0004F8FFEE74FF0500383F31188BFF36F8FFE
:102EC000BFF34F8FFEE74FF0500383F31188BFF33A
:102ED0006F8FBFF34F8FFEE72563022584F85150B3
:102EE00000250395029405AD01950A9D0095FFF715
:102EF00063FE2046FFF7D4FE059806B070BD2DE9AD
:102F0000F04385B00746884614461E46900000F000
:102F100089FA00B38146542000F084FA0546B0B126
:102F2000C0F83090E5B1002385F851300393029545
:102F30000D9B01930C9B0093334622464146384635
:102F4000FFF73AFE2846FFF7ABFE012005E04846B2
:102F500000F0E0FAE6E74FF0FF3005B0BDE8F0839F
:102F60004FF0FF30F9E7000010B588B00024059459
:102F7000069407AA06A905A8FDF7F2FF059B029390
:102F8000069B019300942346079A0D490D48FFF7CD
:102F90007DFF90B14FF0500383F31188BFF36F8F23
:102FA000BFF34F8F084B4FF0FF321A60074B0122DF
:102FB0001A60074B1C6000F0EFFB08B010BD00BFAB
:102FC000142D0208CD2D00086C030020880300207A
:102FD000B4030020024A136801331360704700BF36
:102FE00038030020F8B53A4B1B68002B64D1394BED
:102FF0001D6801351D60C5B9374B1B681B6843B19F
:103000004FF0500383F31188BFF36F8FBFF34F8FDF
:10301000FEE7314A1168314B186810601960304A78
:10302000136801331360FFF7B1FD2E4B1B68AB42F1
:1030300038D900242C4B1B68DB6A03EB83039A000E
:103040002A4B9B58012B3CD901243AE00124224B06
:103050001B681B6843B3204B1B68DB68DE68736822
:103060009D4226D3371D3846FFF77CFDB36A1BB15E
:1030700006F11800FFF776FDF36A01229A401C4919
:10308000086802430A6003EB83039A003946174835
:103090001044FFF743FDF26A134B1B68DB6A9A4248
:1030A000D4D2D4E70024D2E70E4B4FF0FF321A609F
:1030B000C0E70C4A1360BDE70E4A13680133136082
:1030C00000240D4B1B6803B101242046F8BD00BF4E
:1030D00038030020B4030020980200209C02002046
:1030E000700300206C03002094020020A002002046
:1030F0004003002034030020B803002038B5344BCF
:103100001B6843B94FF0500383F31188BFF36F8FEF
:10311000BFF34F8FFEE700F09DFA2D4B1A68013A7E
:103120001A601B68002B4DD12A4B1B680BB9002479
:1031300049E00024284B1B681BB3274BDB68DC6885
:1031400004F11800FFF70EFD251D2846FFF70AFDC4
:10315000E06A01238340214A11680B43136000EBAE
:10316000800029461E4B03EB8000FFF7D7FCE26A84
:103170001C4B1B68DB6A9A42DCD31B4B01221A6092
:10318000D8E70CB1FFF702FD184B1C6874B9164B59
:103190001C68C4B1164B4FF080521A60BFF34F8FBA
:1031A000BFF36F8F01240EE0013C07D0FFF71AFF39
:1031B0000028F9D00C4B01221A60F5E70B4B0022D6
:1031C0001A60E4E7002400F067FA204638BD00BF2B
:1031D000380300202C03002074030020400300204B
:1031E000A002002094020020B80300203403002035
:1031F00004ED00E010B5A8B104460F4B1B6843B1C5
:103200004FF0500383F31188BFF36F8FBFF34F8FDD
:10321000FEE7FFF7DFFE00212046FFF7EBFDFFF79B
:103220006DFF38B9054B4FF080521A60BFF34F8FD6
:10323000BFF36F8F10BD00BF3803002004ED00E026
:10324000204B1B681BB1204B01221A6070471E4B9C
:1032500000221A601D4B1B68B3FA83F3DBB2C3F183
:103260001F0303EB83018A0019498A5842B94FF0C2
:10327000500383F31188BFF36F8FBFF34F8FFEE7C7
:1032800010B4134903EB830082000A44506840687D
:10329000506003EB8304A2001446083211448842B4
:1032A0000BD003EB83039A00094B13445B68DA6885
:1032B000084B1A605DF8044B70474068044A22448A
:1032C0005060EEE738030020B803002040030020E0
:1032D000A002002094020020842801D0033070470F
:1032E0000020704708B5FFF73FFE002008BD2DE91C
:1032F000F04387B004460F464569BDB18669AEB15B
:10330000D0F80480D0F80090B0F90800FFF7E4FF8F
:103310000296019500903B46226949464046FFF7D8
:10332000B5FD0590059807B0BDE8F083656826688F
:10333000D4F81080B4F90800FFF7CEFF05AB019375
:1033400000903B461FFA88F231462846FFF7D7FD2A
:103350000128E7D00020E6E708B500B90120FFF713
:1033600049FF002008BD0000124A12F0070F1ED0CE
:10337000D11D21F00701C1F5705313440A460E48D0
:103380000260002141601344083B23F007030B480F
:10339000036059601960991A51601360084B1960F5
:1033A000084B1960084B4FF000421A6070474FF409
:1033B0007053E4E7C0030020CC3F0020BC03002092
:1033C000C83F0020C43F0020C03F002010B4134B72
:1033D0001A461B688342FBD35168541884420AD0B2
:1033E00041684418A3420BD00360904200D01060A3
:1033F0005DF8044B70474068014451601046EFE7A8
:10340000074C2468A34206D05B68194441601368E6
:103410001B680360E9E70460E7E700BFCC3F0020DA
:10342000BC03002070B50446FFF7D4FD344B1B6885
:10343000A3B1344B1B681C424AD134B1083414F098
:10344000070F02D024F007040834002C42D02E4B82
:103450001B68A3424DD32D4B1D6804E0FFF784FF8A
:10346000E7E72B4615466A68A24202D22A68002A7C
:10347000F7D1234A1268AA423DD01E6808362A684E
:103480001A606B681B1B102B10D9281910F0070F3E
:1034900008D04FF0500383F31188BFF36F8FBFF351
:1034A0004F8FFEE743606C60FFF790FF6A68164934
:1034B0000B689B1A0B60164909688B4201D21449AC
:1034C0000B60104B1B6813436B6000232B6002E002
:1034D000002600E00026FFF711FE16F0070F0CD0C3
:1034E0004FF0500383F31188BFF36F8FBFF34F8FFB
:1034F000FEE70026EFE70026EDE7304670BD00BF8F
:10350000BC030020C03F0020C43F0020CC3F00206F
:10351000C83F002080B338B50446A0F1080550F834
:10352000043C164A1268134208D14FF0500383F34B
:103530001188BFF36F8FBFF34F8FFEE750F8081C61
:1035400041B14FF0500383F31188BFF36F8FBFF386
:103550004F8FFEE723EA020340F8043CFFF73AFDF1
:1035600054F8041C064A13680B4413602846FFF7FE
:103570002DFFFFF7C3FD38BD704700BFC03F0020DF
:10358000C43F002082B0002301930D4B1B68B3F1B0
:10359000FF3F08D04FF0500383F31188BFF36F8FC4
:1035A000BFF34F8FFEE74FF0500383F31188BFF353
:1035B0006F8FBFF34F8F019B002BFCD002B0704781
:1035C0002000002008480068006880F308884FF059
:1035D000000080F3148862B661B6BFF34F8FBFF36B
:1035E0006F8F00DF00BF000008ED00E0DFF80C0087
:1035F000016841F4700101607047000088ED00E04F
:103600004FF0807340F8043C21F0010140F8081CA1
:10361000054B40F80C3C40F8202C6FF0020340F8BA
:10362000243C4438704700BF853500080000000086
:10363000074B19680868B0E8F04F80F30988BFF3BA
:103640006F8F4FF0000080F311887047AFF3008058
:10365000940200204FF0500383F31188BFF36F8F63
:10366000BFF34F8F0A4A136801331360012B00D058
:103670007047084B1B6813F0FF0FF9D04FF0500351
:1036800083F31188BFF36F8FBFF34F8FFEE700BF47
:103690002000002004ED00E0094B1B6843B94FF007
:1036A000500383F31188BFF36F8FBFF34F8FFEE793
:1036B000013B034A13600BB983F31188704700BFC5
:1036C00020000020000000000000000000000000BA
:1036D000EFF30980BFF36F8F154B1A681EF0100FC0
:1036E00008BF20ED108A20E9F04F10602DE9090095
:1036F0004FF0500080F31188BFF34F8FBFF36F8FEF
:10370000FFF79EFD4FF0000080F3118809BC196897
:103710000868B0E8F04F1EF0100F08BFB0EC108A38
:1037200080F30988BFF36F8F704700BFAFF300804D
:103730009402002008B54FF0500383F31188BFF3C3
:103740006F8FBFF34F8FFFF74DFC18B1034B4FF056
:1037500080521A60002383F3118808BD04ED00E055
:10376000084A0023136008490B60084B1B6808498E
:10377000A1FB03139B09013B06490B600723136060
:10378000704700BF10E000E018E000E01C000020DF
:10379000D34D621014E000E03A4B1A683A4B9A425B
:1037A00029D0384B1A68394B9A422DD010B582B0C7
:1037B000374B1A78D2B20192FF221A701B78DBB213
:1037C0008DF803309DF8033003F05003314A137035
:1037D000314B07221A609DF8033013F0800F1CD084
:1037E0002D4A1368013B13609DF803305B00DBB288
:1037F0008DF80330EFE74FF0500383F31188BFF3E8
:103800006F8FBFF34F8FFEE74FF0500383F31188A4
:10381000BFF36F8FBFF34F8FFEE71F4B1B68032B68
:1038200008D04FF0500383F31188BFF36F8FBFF3BD
:103830004F8FFEE71B0203F4E063174A1360019BFE
:10384000DBB2134A1370154B1A6842F470021A6007
:103850001A6842F070421A60FFF782FF0024104B92
:103860001C60FFF7C3FE0F4A136843F04043136028
:10387000FFF7A8FEFFF7E4FCFFF784FE204602B046
:1038800010BD00BF00ED00E071C20F4170C20F41DA
:1038900000E400E0D43F0020D83F002020ED00E00D
:1038A0002000002034EF00E02DE9F0410646884674
:1038B00017461D463468A46838EA04030CBF012487
:1038C0000024BC4237D0B5F1FF3FF3D0FFF7D8F862
:1038D000069BC01AA84201D2002DEBD13268536872
:1038E00023F0E00353607368B3F5827F0BD0B36AB3
:1038F000B3F5005F14D0012386F85130002386F819
:103900005030032018E0B368B3F5004F02D0B3F590
:10391000806FECD13268136823F040031360E6E750
:103920003268136823F4005313603268136843F459
:1039300000531360DFE70020BDE8F08130B585B0AB
:103940000446164B1868164BA3FB0030400D4FF48D
:103950007A7505FB00F003906368B3F5827F0BD0A6
:10396000039BBBB1039B013B039323689B6813F04C
:10397000800FF5D100200EE000920B46002280213E
:103980002046FFF791FF30B1636D43F0200363657C
:10399000032000E0002005B030BD00BF1C00002067
:1039A000819F5E1600283BD010B504460023836239
:1039B00090F85130002B2ED0022384F85130226829
:1039C000136823F0400313606368A2681343E2683E
:1039D00013432269134362691343A26902F400721C
:1039E0001343E2691343226A1343A16A22680B431B
:1039F0001360638B03F00403616A22680B43536016
:103A00002268D36923F40063D36100206065012339
:103A100084F8513010BD80F85030FDF75BFBCBE7E8
:103A20000120704790B110B50446022380F8513050
:103A30000268136823F040031360FDF799FB002030
:103A4000606584F8510084F8500010BD0120704773
:103A50002DE9F04383B01D4690F85030012B00F063
:103A6000C380044688469146012380F85030FFF712
:103A700007F8074694F85160F6B2012E40F0A18095
:103A8000B8F1000F00F09E80B9F1000F00F09A80AD
:103A9000032384F8513000236365C4F83080A4F810
:103AA0003490A4F83690A363A387E3876364236408
:103AB000A368B3F5004F1DD023681A6812F0400FB9
:103AC00003D11A6842F040021A60E368B3F5006F50
:103AD00016D0636813B1B9F1010F4AD1226B236884
:103AE00012781A73236B01332363E38E013B9BB27D
:103AF000E3863EE02268136843F480431360DBE70B
:103B0000636813B1B9F1010F15D1226B23681288D4
:103B1000DA60236B02332363E38E013B9BB2E386BF
:103B200009E0FEF7ADFFC01BA84202D3B5F1FF3F8D
:103B300052D1002D52D0E38E9BB2002B2CD02368A3
:103B40009A6812F0020FECD0226B1288DA60236BB5
:103B500002332363E38E013B9BB2E386EBE7FEF780
:103B60008FFFC01BA84202D3B5F1FF3F38D1002D13
:103B700038D0E28E92B27AB123689A6812F0020FBE
:103B8000EDD0226B12781A73236B01332363E28E1C
:103B9000013A92B2E286ECE73A4629462046FFF720
:103BA000CDFE08B120236365A36833B90193236870
:103BB000DA6801929B680193019B636D13B900263B
:103BC00000E00226012384F85130002384F85030AD
:103BD000304603B0BDE8F0830326F3E70326F1E7A0
:103BE0000326EFE70326EDE70226F1E72DE9F04390
:103BF00083B01F460A9D90F85030012B00F00981D8
:103C0000044688469146012380F85030FEF738FF7D
:103C1000064694F85130DBB26268012B0AD0B2F547
:103C2000827F40F0DC80A268002A40F0E280042B12
:103C300040F0E180B8F1000F00F0DF80B9F1000F33
:103C400000F0DD80002F00F0DC8094F85130DBB212
:103C5000042B02D0052384F8513000236365C4F897
:103C60003890E787A787C4F83080E786A786236463
:103C7000636423681A6812F0400F03D11A6842F097
:103C800040021A60E368B3F5006F10D063680BB1AF
:103C9000012F0AD1226B236812781A73236B013328
:103CA0002363E38E013B9BB2E386012766E06368F2
:103CB0000BB1012F0AD1226B23681288DA60236BC3
:103CC00002332363E38E013B9BB2E38601271AE0B4
:103CD00023689A6812F0010F0DD0E28F92B252B1B0
:103CE000DA68A36B1A80A36B0233A363E38F013BF3
:103CF0009BB2E3870127FEF7C3FE801BA84202D3D5
:103D0000B5F1FF3F7FD1E38E9BB21BB9E38F9BB22E
:103D1000002B50D023689A6812F0020FD8D0E28EA0
:103D200092B2002AD4D0002FD2D0226B1288DA604F
:103D3000236B02332363E38E013B9BB2E3860027B0
:103D4000C6E723689A6812F0010F0DD0E28F92B295
:103D500052B1DA68A36B1A70A36B0133A363E38FCC
:103D6000013B9BB2E3870127FEF78AFE831BAB4230
:103D700002D3B5F1FF3F48D1002D48D0E38E9BB26E
:103D800013B9E38F9BB2B3B123689A6812F0020FA4
:103D9000D7D0E28E92B2002AD3D0002FD1D0226B9E
:103DA00012781A73236B01332363E38E013B9BB2BA
:103DB000E3860027C5E7324629462046FFF7BEFDC9
:103DC00048B9A36863B901932368DA6801929B68D4
:103DD0000193019B04E020236365012000E00220A1
:103DE000012384F85130002384F8503003B0BDE83B
:103DF000F0830220F4E70220F2E70120F0E701203F
:103E0000EEE70120ECE70320EAE70320E8E70320E0
:103E1000E6E70220EAE70000DFF834D0002103E003
:103E20000C4B5B58435004310B480C4B42189A42E0
:103E3000F6D30B4A02E0002342F8043B094B9A42B6
:103E4000F9D3FEF737FE00F011F8FCF7D9FC704704
:103E5000000002202C2D0208000000202400002079
:103E600024000020B8410020FEE7000070B50D4D91
:103E70000D4C641BA4100026A64209D10B4D0C4C1E
:103E800000F076F9641BA4100026A64205D170BD8F
:103E900055F8043B98470136EEE755F8043B984740
:103EA0000136F2E7242D0208242D0208242D0208F1
:103EB000282D020802440346934200D1704703F8BC
:103EC000011BF9E72DE9F04F099E8A468E461546FB
:103ED00004461946002B40F0CA805245B2FA82F7D8
:103EE00047D94FB1C7F120080AFA07F320FA08F8BA
:103EF000BD4048EA030EBC404FEA15491FFA85F859
:103F0000BEFBF9FB220C09FB1BE30BFB08FC42EA9E
:103F1000034AD44529D915EB0A0A0BF1FF3004D224
:103F2000D44502D9ABF10200AA44AAEB0C0AA4B210
:103F3000BAFBF9F309FB13AA03FB08F844EA0A44A5
:103F4000A04514D92C1903F1FF3203D2A04501D9A1
:103F50009A1E2C44A4EB080442EA00401EB1FC4027
:103F6000002334607360BDE8F08F5846DDE71A46E1
:103F7000F0E702B9FFDE9FBBAAEB020301214FEA83
:103F8000154CAAB2B3FBFCFE200C0CFB1E330EFB3F
:103F900002F840EA0343984565D9EB180EF1FF306B
:103FA00004D2984502D9AEF102002B44A3EB0803DA
:103FB000A4B2B3FBFCFE0CFB1E330EFB02F244EA80
:103FC0000344A24251D92C190EF1FF3304D2A2426C
:103FD00002D9AEF102032C44A41A43EA0040BDE723
:103FE000C7F120082AFA08F9BD4020FA08F80AFAB1
:103FF00007F348EA03024FEA154CABB2B9FBFCFEEB
:10400000110C0CFB1E900EFB03F841EA00408045AA
:1040100004FA07F423D928180EF1FF3104D28045A1
:1040200002D9AEF102012844A0EB080092B2B0FB25
:10403000FCFE0CFB1E000EFB03F842EA0043984511
:104040000FD9EB180EF1FF3204D2984502D9AEF128
:1040500002022B44A3EB080342EA01418FE77146B9
:10406000E2E77246F6E77046A0E77346B4E75345C9
:1040700005D90EB1C6E9000A0021084673E7B3FA74
:1040800083F8B8F1000F10D1534501D382420AD80A
:10409000841A6AEB030301209E46002E65D0C6E910
:1040A000004E00215FE74046F7E7C8F1200903FA18
:1040B00008F322FA09F71F4320FA09F40AFA08F371
:1040C0002AFA09F51C434FEA174A02FA08FC00FADB
:1040D00008FEB5FBFAF2BBB20AFB1250250C02FB3C
:1040E00003F145EA0045A9423BD97D1902F1FF30B1
:1040F00003D2A94201D9901E3D446D1AA4B2B5FB6A
:10410000FAF20AFB1255534344EA05418B422AD97D
:10411000791802F1FF3403D28B4201D9941E39443D
:1041200044EA0040A0FB0C45C91AA94223462A468E
:1041300002D306D1A64504D2B4EB0C0365EB07020B
:10414000013896B1BEEB030461EB020E0EFA09F9D9
:1041500024FA08F349EA03032EFA08F1C6E900310C
:104160009FE71046C9E71446DAE73146FBE6000050
:10417000F8B500BFF8BC08BC9E467047F8B500BF54
:08418000F8BC08BC9E46704724
:10418800C44100087104000800000000000000009D
:10419800800000000000000000000000392C0034FE
:1041A8000200000000C1300085007800000E1403F2
:1041B800110731C148080F0C31360F00646566617C
:1041C800756C745461736B00466F6E745F37783129
:1041D800302C20726564206F6E20626C61636B2CDA
:1041E800206C6F72656D20697073756D20646F6CDB
:1041F8006F722073697420616D657400466F6E7408
:104208005F31317831382C20677265656E2C206CEF
:104218006F72656D20697073756D20646F6C6F7255
:104228002073697420616D6574000000466F6E74B8
:104238005F31367832362C20626C75652C206C6FB5
:1042480072656D20697073756D20646F6C6F722074
:1042580073697420616D6574000000005748495403
:1042680045000000424C55450000000052454400FE
:10427800475245454E0000004359414E000000009A
:104288004D4147454E54410059454C4C4F5700004D
:10429800424C41434B000000546F75636870616481
:1042A80020746573742E20204472617720736F6DBB
:1042B800657468696E672100630B630B6B0B6AEBAF
:1042C8006B2B632B6B2B6B2B6B2B6B2B6B2B6B2B3E
:1042D8006B2C6B2B634C6B2B6B4C736C6BCB7C4BD1
:1042E80084AB8D4B9DAC9E4CA70CBFCCD7ECDFCDDF
:1042F800E7CDEFECF7CCF7CBF7CBF7EAFFCAF7CB74
:10430800FFCCFFCBFFCBFFCBF7EBF7ECEFECE7CC29
:10431800E7ECE7CCEFCBEFCCE793C73DBEFFBEDFC2
:10432800BEFFBEDFA65F85FE755C64B94C194BBD48
:104338004B9D7C3E94FF8D5FA5BFADDFA5FFAE1FF3
:10434800B63FADFF8D3F745E6C1C5BD953564B1660
:1043580052F763175B3753154AF44AD342B1427395
:104368005298739D63DD639C845EAD9F74FD4B7DA5
:10437800ADBFCEFFCF1FD73FCF1FAE5E7CF953B77F
:104388006C1B83FAB53DBDDF9D7E84BA7CB884760C
:104398008C9784957C337C1283F47BF373D373F40A
:1043A8007C148C7484136B3662FCA53EB67FBE9F6A
:1043B800BEBFA63FA5BFA5FF7D392A0B312E39F414
:1043C80021B231187B5D9D5F951FBE1FCF1FC73F70
:1043D8008E5E6BFD741C53BB84BE639E84BF53DE2C
:1043E8003A9A6BDE749F4B7B42BB533D4AFC4B1D94
:1043F8005B3E9D3FB63FB69FB6BF8D9F8CBF8D1F5E
:104408007CBF8D3F7CDE6C1E84BF7C9E9D7FB6DEAC
:104418008D5C849863B7637C6BDE7CBF743E8D3F94
:10442800B5BFCEFFBEDFCEBFAE9F9E1E847CB5DF7C
:10443800D73FE77F9E7B5BAE5ACA62CA62CA5AAA56
:104448005AAA5A895A6A5A695A695A6A5A685269F2
:1044580052895249524952285228422842484A28E9
:10446800420842074A084207420741E749C741C78D
:1044780039C739C641C639C639A639A631863986FB
:104488003186318531653184314529652945214495
:104498002924292421242103632B630C6B0B630B30
:1044A8006B0C6B2B632B6B2B6B2C6B2B6B2C6B2C78
:1044B8006B2C6B2C632C6B4C632C6BAC740B84AC2B
:1044C800954AA5EAB66BC72BD7ABDFCBDFEBE7CCBA
:1044D800E7CDEFECF7EBFFCAFFEAFFEAFFCBF7CB3C
:1044E800FFCCFFEBFFCBF7CCF7CDEFCEE7CED7CDA8
:1044F800CFCDC7ADC74CB70CA690A67AA69FAE9FE6
:10450800B6BFC6BFB6BFAE5F9DDF851F7CBE647EEB
:104518005BFD3B5853BB743E84BF8D1F955F957FF1
:104528009D7F9D7F953F7C9F5BFA53775B365B163B
:1045380052D44252429263545B535AF34A904A4FC0
:1045480042503A324A57635A639B6B9BAD5E959EC5
:10455800543C847DBDFFD71FCF1FBEBFBE7F95DCF7
:1045680084DC6C5963567BB883FC9CDE94FC9CDA33
:1045780094FAAD5A9D198C958434841384947C7470
:10458800743383F3841373926AF462D98C9EB63FB2
:10459800B65FB65FAE5F84FE9D7F8D7C3A8F312D0E
:1045A8004213323118F162BB7C9F8CDFADDFBE9FB6
:1045B800C71FAEFF7DBE5C3D849F74BE535D7C9E6D
:1045C80053BC3ABB531D63FD431B4B9E5BBE435C10
:1045D8004ADC5B5E94FFADFFB63FAE3F84FF747E5E
:1045E8005C1F847F7CFF6C5E747E7CBF84DFBE3F73
:1045F800C75F9E7E5C585B585B1B637E6C5F7C7EEE
:10460800953FBE5FBEDFB63FC69FB67F9E1E9D1E0E
:10461800CEBFCF3FC71F9E7B5BCD5AEA62EA5ACA1C
:1046280062CA5AAA52A95A8962895A695A69528928
:1046380052695249524852484A484A484A284A48C0
:104648004A2849E74A0742084207420741E741C763
:1046580039E739E639E739C639A739A631A539A680
:104668003986318631852965316529653145294481
:104678002944292421242124634A630B6B0B630BEF
:1046880072EC732B6B0B6B2C632C6B0B6B2C6B2BE7
:104698006B4C6B4C6B4C732C6BAC7C4C850C95CB7E
:1046A800A68AB70AC78AD7CBE7CCDFCCE7ECEFCC32
:1046B800F7CCF7CAFFCBFFCAFFEAFFCBFFEBFFCB74
:1046C800FFEBFFCCFFCCFFECF7CEEFCFDFD0CFCEA8
:1046D800AF8D9ECC8E4C85EC6DAE7D958D9E8DDF1D
:1046E800A63FB67FC69FAE7FA61F9D9F749E645C43
:1046F8007C3E7C3E743C63FC6BDD6BFE849F84BF18
:104708008CFF8D1F7C9E741C6C5A63F853B54AF25B
:1047180042704A7152B1527052916AF5531352F174
:104728004AF0324D29EC41B049B44A564AD99CFE68
:10473800B65F85BD4BFA7C1CA55EBE1FBE9FB65FEB
:10474800B61F95BE8D5B74776BF663988C9D847CE1
:1047580073F88C7A8CBC9CFD94B884148476843469
:104768007BF17BD283F17BB16B506B746B5A8C7E7F
:10477800AE1F95DF9DBF959F84FF741E743D4B74DB
:1047880029CE4A7429D1317352BB747E7C3F951F60
:10479800ADFFC6BFBEFFA6BF7D3E6C9E641E42DA5B
:1047A800639C2A983ABB325953BE539E4B1C4B1CF0
:1047B80042DC42DC4AFD9CDEBE9FBEFFA65F74FE63
:1047C8006C3E5B3E747F6C1E84DF7C7E84DF9D7F45
:1047D800C69FC75FA67F6C9A6B5B52FC637E5BFECD
:1047E8007C9EA5BFC6BFBE9FB65FBE7FB69F8DDE4F
:1047F800BDBFD71FCF3FC73FA69A5B8C6B8D9CF57B
:10480800538C5AAA5AAA628A5A895A8A5289528950
:1048180052895249526952494A4852684A484A2874
:104828004A284227520842074A07420741E741E718
:1048380041E741C639C639C639C739A639A63986C6
:104848003186318531853165318531643145294578
:1048580029452924292421246B0B6B2B632B6B2BD3
:10486800630C6B0B6AEB6B2B6B2B6B4C632B730B17
:10487800732B6B2C6B4B73AC7C6B8D6B9E4AAEEAC7
:10488800C76ACFAAD7CADFCBEFECEFEDEFECF7CCD6
:10489800F7CBFFEAFFEBFFEAFFEAFFCBFFCBFFCB4B
:1048A800FFECF7CCFFCCF7CCF7EEEFD0DFF1D7CFAA
:1048B800B74F9E6F7DCF754E650F64B16CB974BEEE
:1048C8008D9FADBFAE1FB63FAE3FADDF84FF641C0A
:1048D80063D963DA6BBA7C1D741E73FC5BDB63FC03
:1048E8007C3E8CDF8CFD853A64B863F873F97439C3
:1048F80063B542CE31EB31CB39CB422F52D35AF488
:104908004AF363334AF13A4D29CB52F263F984DC16
:10491800A55EBE3FC69FAE3E6D1B745C9D7FBE7F8D
:10492800C6BFA63FA5FF9DDE853C7438843794BB7F
:10493800A59E7C9A947C94DD94DE8CDA7C167C159A
:1049480073D37B907B91734F62CE62ED62EF5A9680
:104958007B5B9CBEA5DF959F84DE7C7E6BFC6BFB3E
:1049680043174AD6537832B231B449FA6B9D6BBFBC
:10497800847FA5BFADFFB69FAE9F859F645E4BBD8C
:104988003A984B1B3AFB437B2A17429C5B9D3AB9EA
:104998004B3D4B3C42DB31F9A55ED77FCF7FA69FCD
:1049A800853E433C8CFE5BFC7C5E63DD73BD94BF3F
:1049B800A59FCEDFC73FA6DF6CDD5B7C4B3A535C1F
:1049C8005BBE8CBFB5FFBE7FBE7FC67FB67FBEBF56
:1049D800955FD6BFCF3FCF5FCF5F75556B4EA49B1A
:1049E800AE5C53CE5ACA5AAA5AAA5AAA5A895289A6
:1049F800528952695289524952484A685248524823
:104A08004A4852284A284A284A2742074207420762
:104A180041E749C741C741E741C739C639A639A661
:104A28003986318539863185318531653165296524
:104A38002965294429442144730A6B0B6B0B6B2BA2
:104A48006B0C6B0B6B0B6B2B6B2B6B2B732C6B2C03
:104A58006B4C6B2C73AB848C9DEDBF0FCFAED7CE58
:104A6800D7CDD7CDD7CDDFEDE7CDEFCDF7CDF7CC8F
:104A7800F7CBFFCBFFCBFFCAFFEBFFEBFFCCFFCCA5
:104A8800FFCCF7ECFFCDF7CDEFEEE7D0D7D2D7D1FB
:104A9800CF519E7085B085317D1174B264B57CFDAF
:104AA80084FE8D5F9D9FADDFADFFADDF953F6C7ED2
:104AB8006C5B6C5B6C7B6459643A645B643B5BF96C
:104AC80063BB639B73FBAD5C9D3D6C595BD663D642
:104AD8006BB87C5A5BB4328C422A3A2A422E5A92DC
:104AE800425039EE42104A5042514AB36B39A55FE1
:104AF800BE7FA67E8D5E9D1EB63FBE9FB65FBEBFC3
:104B0800C6DFB6BFB69FB6BF9E1F8D7E8D3C7C7933
:104B18008C5C8C5D843B7C5A7C9D8CBD955D8457F8
:104B280073F67B9273906B3163505ACE5A6A4A0B74
:104B3800631474396BDE7BFE84BE9D7F7CFE84FD2E
:104B480063F7321141F563BB4B773A9621554A39E1
:104B580073FF7C3F953FA5BFB67FAE9F8DFF6CFE70
:104B68005BFD3B395B3D52DA63FB2A7829D54A9CC9
:104B78004B1C3A5A429A4BBB4239C5DFDF7FCF7F85
:104B8800A67F855E533A7C9D63FC5BBC743B63DD0A
:104B9800AD7FB5BFCEFFC75FAEFF7D3E53FC5B79EF
:104BA80063DD5BDD8CFFADFFB63FB61FBE5FB63F72
:104BB800A65FA57FD71FCF3FC73FAEBD5C517BF92E
:104BC800CE5FA6BC640F5AAA628A5AAA5AA96289F9
:104BD8005A895A895269526952495A4952685268DF
:104BE80052284A4852484A28422742284A0841E758
:104BF8004207420741E741E741C739C641A639A6FE
:104C080039A631A6398631863185318531653165D8
:104C18002965294429442944632B630B6B2B632B97
:104C28006B0B6B2B6B2B6B2B732B6B0B6B4B6B4BC4
:104C38006B2B6B4B73AC94EDBE4FE731EFD1EFF1BB
:104C4800E7D1E7CFEFCEEFEEEFCFF7CEF7ECFFCB24
:104C5800FFCCFFCBFFCBFFCBFFCBFFEBFFCBFFEBBB
:104C6800FFCCFFCDF7CEF7EEF7D0EFD0D7D1BFD13D
:104C7800CF729E508DB185538D128CD6ADDEB65F46
:104C8800A61F8DBF957F9D9F9D9FA5BF8D1F749D5E
:104C98007CDEA59FB67FB69FB6BFAE9F963E7D7B56
:104CA8005C99643B63D873D96B9973FBA55D8D3BA5
:104CB800749873D88C3C74596B9252ED52CE5270E2
:104CC8004AD23A6E29CB29AA196A218E31D231D516
:104CD800629A949EC63FB69FB67FAE9FAE3EAE1F09
:104CE8009D9FC69FC71FBEDFB69FA65F9DFF8D3ED7
:104CF8006C7C5B987BDC84BB843B8C9DA59F84FC8F
:104D08008C9B7C5863725AAF63345B1252CF3A0A59
:104D180062D4A59FBEDF965F649D5B5C8CBE9D5F81
:104D2800851E64193A7031734A575B7B433B3AD707
:104D380039B9535E635E849F957FAE3FAE9F961FE1
:104D48007D3F53FD42D83A5739F8535C539A29B4FA
:104D580039F842FB539B4ABB5BFC427BB57ED77F4D
:104D6800CF7FA67F6CDD5AFA9D9E6418849B6C9D4C
:104D78008CDEA59FB5BFCF1FC71FAEBF755E7C9DDC
:104D88006C5C6C7D641E8D1FA5BFB63FADFFAE1F6A
:104D9800B63F95DFBE1FCF1FC71FC6FFAEDD7D1B09
:104DA800AE1FD71F9E5C63CF5AAA5AAB5AAA5AAAFB
:104DB80062895A8952695A695289526952695248B4
:104DC80052494A6852484A284A284A084A084A081A
:104DD8004A074A0741E741E741E739C641C639C6AC
:104DE80039C631A631A63985318531853185316598
:104DF8002965294529652924630B630B6B0B6B2BEC
:104E08006B0C6B2B6B2B6B2B6B2B730B6B4A6B2B02
:104E18006B2C6B6C73CC844C9D4DB64FD770EFD117
:104E2800EFD0F7EFF7CDF7CDF7CDF7CDF7ECFFCB18
:104E3800FFCBFFCBFFCBFFEBFFEBFFECFFEBFFEB79
:104E4800FFCCFFEDFFCDF7F0EFD2E7D2DFD2BFB254
:104E5800CF719E70A6129D758D367C9684DCB5DF69
:104E6800CEBFC6DFA69FA63F9DDF95BF9D5F951F5E
:104E780084FF955FADBFB5FFC69FCEFFCF1FC73F6D
:104E8800BF1FAE9F961D7D3B53F753776B797C3CD4
:104E980094DD7C5A6BB583B98C7B6BF452AE4A2F88
:104EA8005A935B145B5553725B92535143304B11C9
:104EB80032712A54631C94DFB61FD71FD71FBEFF59
:104EC800AE7F8D5FADBFCEDFD71FC71FB6DFAE7F0A
:104ED8009DBF645C42D96B7A849C6BDA8CBE847DFE
:104EE8008C5C6B97741874155B7452F0422F4A2FC0
:104EF8005233741D9D1FB67FBF1F9E5F6CBD5B5BE9
:104F0800741E5BFC645B5C5832D4525842DA429996
:104F18004B5A42DB427C531E7C1F9D7FA5DFAE5F50
:104F2800961F7D3F53BC42D83AF931F83A5842F9B6
:104F3800433929D74A99537D3A9B537D3A9CA4BE5D
:104F4800CF1FB71F961F7D3D6BDB955D8CDDB6FFD0
:104F5800855E953FA53FB5BFC6FFBEFFAEDF7D3E70
:104F6800A57E8D3E649D6C5E8CDEA5BFA5BFADDFC2
:104F780095BFB61FA5BFD6FFC71FC6FFC6DFB6BF02
:104F8800BEBFCEDFCF1F8DDB5BAD628A5AAA52C986
:104F98005AA95AAA5A89528952695A495269524891
:104FA8004A484A4852484A484A284A284A284A0702
:104FB8004A074A0741E741E741E741E739C739C6A8
:104FC80039C639C639A6398631A531853185318545
:104FD8002965316529642945632B630B730B632BA2
:104FE8006B2B632B6B2B630B6B2B7B0C732A6B4B21
:104FF8006B4C6B4B6B8B73CB7C4C8D2CA64DC76D60
:10500800D7CDE7CDEFEDF7ECF7CCFFCCFFCCFFEB3E
:10501800FFCBFFEAFFCBFFEBFFEBFFCBFFEBFFCCB8
:10502800FFCBFFEDFFCCFFCEF7F1E7F4CFD5A776A6
:10503800BF34AE739E1295528D3594F98CDC7CFF8B
:105048009D7FBE3FCEDFBEFFB6BFA65FA5DF955FE3
:105058008D1F84DF7C9E84FF9D5FA59FBE3FCEBFD2
:10506800CF1FCF3FC71FC6FFAEDE859C54574B5599
:105078004AF683DB947C5B7563158C7C7C78532FB4
:105088004A6D526F5AB15AB352B26B7473B77C38C7
:105098006C186BB673D75B7973DCA51EB61FBE9F01
:1050A800C6FFC6FF9DFF9D5ECE9FCF1FCF3FC73F68
:1050B800B6BFA65F7D1D6C3ABE3F955D63997BFBCD
:1050C8006B5A6BDB63D973D763B76B966B955311C8
:1050D8004A315B1A73BE8CBFB5FFC6FFBF1F9E1F48
:1050E8006CBB52FA63BC63BB5BFC5B3B42D942B707
:1050F80039F65B5D431B32195B3D6B9F8CDF9D9FCF
:105108009DBF8D9F6C9E435B4AFA3A763A794ADB9B
:105118004B1A32B8327531D842BA32BB3ADC3A7CD3
:1051280093FDC6FFBF1FAE5F8D7D849C8D5EC65FFD
:10513800BF1F7CDE6C3EA51FB5BFC6FFBEFFA69F86
:105148008CFEC6BF95FE6C5B7C7FA5BF8D5F957F8F
:105158009DBF8D3FAE1FC65FCEFFBE9FBE9FCEFFD9
:10516800CF5FCF1FD73FB6FFAE5B5B8D5AC95AAA38
:105178005AC95AAA5A8A5A895A8952695248524867
:1051880052484A4852284A4852484A284A284A27F0
:105198004A0842273A0742073A0739E741E741C632
:1051A80039C739C639A639863986398631A631A52F
:1051B8002985298431653165630B632B6B0B632B60
:1051C8006B2B6B2B730B6B2C6B6B6B2B6B4C6B2BDD
:1051D8006B2C6B4C6B8C738B73EC7C8C9D8CBEEB4B
:1051E800D7CCDFCDE7CDEFECF7ECFFCCFFCCFFEB76
:1051F800FFCAFFEBFFCAFFCBFFEBFFCBFFCCFFECF7
:10520800FFCCFFCDFFEDFFCDFFEFEFF2D7D5BF7895
:10521800B6FAB67AA618A59485328494843B745D50
:1052280084DF955FA5DFBE7FC6DFBEDFB69FAE5FBA
:10523800A5BF8D3F7CDE747D847E84BF8CFF9D3F3F
:10524800ADBFBE3FCEBFCF1FC71FBEFFAEBF95DDF0
:10525800649742D25AB66BDB5BB64B52845A8C9732
:105268006B304A8B4A8D528F424D427052D34292D4
:1052780031AF49F052725A9462F55AD783DCB63F7F
:10528800C6BF9DBF9D9F8D5F7C1EB5DFC69FC6FFB5
:10529800CF1FC71FB67F95DF8CBD945B7C5A73DA2E
:1052A8006BF86B9773386B1773D873B65B7552F4DA
:1052B8005AB342355B1C637E849FA57FB65FC6FFE9
:1052C800AEDF8DDE5C5B5B9C533B5B7C3AB94A9BF3
:1052D800539A31F731F842BB42FC39DA5ADE743F4F
:1052E80084DF84FF7CFF645F3B1C42FB3A993A9859
:1052F8004B3B63FD4B7A2A56327829B752FB3ABAB0
:1053080042DD7B9EC6BFAEDF9DFF95BF84BD9D1E5F
:10531800BEDFA69F74DF951F9D1FB63FBEDFB6BFD9
:1053280095DF9D5FBEFF95DE743D8CFF957F7CDF2A
:105338007CBF957F94FE9D9FBE9FB67FB67FBE5F64
:10534800CF1FC6DFD73FC71FC6BF853662EB5AAA35
:105358005AA95AA95AAA5A8952895AA952895269E4
:105368005A494A6852484A494A484A2852284A28C3
:105378004A274A28420742074A0749E739E741C707
:1053880041C639C639C739C639C639A631A639A57D
:1053980031853165296531656B2A630B6B0B6B2B86
:1053A8006B2B6B2B6B2B6B0C6B4B632C6B4C6B4C09
:1053B8006B2C734B73EB7C2C846B84CB8D2BAE0BDB
:1053C800D76BEFCDF7CDF7CCF7CCFFCCFFECFFEBED
:1053D800FFCAFFCAFFCAFFEAFFEBF7CDEFCEF7EE31
:1053E800F7CFFFD0FFCDFFCCFFEDF7F0DFD3D776B7
:1053F800AEDABE9BB63EA5BB8D568C9464146C1A6F
:10540800745E849F851F957FA5DFBE7FC6DFBEDFE4
:10541800AE3FA5BF8D1E74BD6C5C741C73FE8C7F83
:1054280084DF94FF953FADFFBE7FC6DFBEBFB67F6A
:10543800AE1F957D5C1642F3631763D66BB4631495
:105448005AF1737052EC5AEF530E4ACE42B04AD218
:10545800531363705B90530E428D526E523272F941
:10546800AD5FCEDFB69F7CFF541F4ADE949EBE5FC1
:10547800BE7FC6DFC6FFAE9F9DFF749B6376743BFD
:1054880063976BF96B9873D77BB65AF352D252B4C1
:105498005A924A723A7442585B1D73DE9CFFAE1FE3
:1054A800BE7FBEFFA67F7D3E537A4B5A531B42FAFE
:1054B8003A38431B3B1A2A763A5A3A7932194A5CE7
:1054C8005B7E6C1F6C5F641F4BBE3ADA3A783ADA3F
:1054D80042B94279537D4AFB3AF932B82A364298A2
:1054E800427A3ADC733DB65FA63F84DE645D84BFD2
:1054F800A51EC71FA67F8D3F8CDF953FB61FB69FA1
:10550800AE7F7CDFBDDFC71F7D3E745E84BF7C9E9F
:1055180084DF7C7E7CDEADBFADFFAE3FB63FA5BF6E
:10552800C6BFBEFFC6DFD73FB6DFAE5D6C2F62EBEE
:105538006B8C5ACA5AA95A8A528A5A6952A95A6904
:1055480052685A6952485248524852484A48522862
:1055580052284A27422742274A0749E741E739E7BD
:1055680041E639E639E639C639C639C639A531A61C
:1055780031863185316531656B2A632B6B0B732B53
:105588006B0B6B2B632B6B2C6B2C6B0C6B4B634C6F
:10559800734C738B7BEB8C6B9CEBA52CA5CB9E4B38
:1055A800AF0BD7ECF7ECFFCCFFCBFFCCFFECFFCB7E
:1055B800FFCAFFEAFFEAFFCAFFCAFFCBE7CDC7D1A0
:1055C800C7D6CFD7E7F5F7D2FFCFF7CFF7CFE7D3D7
:1055D800CF38C699A5FBA59D951D94DA7C9974389A
:1055E800743C745D84BF94FF953F9D9FB61FBEBFFA
:1055F800BE9FA61F95BF84FF749E6BFB73FB6399C8
:10560800533B6BBD7C5F8CBF8D1F9D7FA5BFA5DF06
:10561800ADDFADDF7CFE747B63B653156BB56B7382
:105628005B126B1273D363936393531042AF428F31
:10563800422F5A9183F684145B0F5A8D4A0C4210FC
:105648005236839DB59FB63F6C7F531C31FA6B3D34
:10565800A57FAE1FADFFB63FB63F9D7F7C7C5B57F5
:105668006BB963B86BF86BF76BB563555B334B136A
:10567800529131EE31AF52D74A775A9A6BDE8C5F2E
:10568800AD9FB63FB69FA69F857E53BB4B3A425708
:105698003A973ABA433A3AB93AD9325832583A9AD2
:1056A80029F94ABE535E537F4AFB42FB42B93A7717
:1056B800425742FB3AD92A5863BC53DB32983AD74F
:1056C8003A36533A3A9A4ADD953F7CFF749F5BBE5F
:1056D80073FEADBFBF1FAE9F9DDF8D3F951FAE3FD1
:1056E800A5FF8D7F94DFD6FFBEFF855F847E747E25
:1056F8007C5E63BD8D1F8CFFAE3FA63F9DDFA5DF9F
:10570800ADDEC71FB6BFDF3FC73FC6DF9DD96BAE53
:10571800B5DA6C5062AA5AAA5A89528952A95A69AA
:1057280052894A694A885A4952484A684A494A48FD
:105738004A284A284A284A2842274A07420742074D
:1057480041E741E739C639C639C639C639A639A647
:1057580039A631A531853165632A6B0B6B2C6B2C0F
:105768006B2B6B0B6B2C6B0B6B2B6B2B6B4B6B4C7F
:1057780073CB7C0C7C2C7C8A8CEAADCBC6CBCF6CF3
:10578800C7CDD7EDEFCCF7EBFFCBFFCAFFCAFFCAF7
:10579800FFEAFFE9FFE9FFE9FFCAFFC9FFCAE7CE51
:1057A800C7D6AFDBB7BDBF7CD7B9EFD5F7D2DFD14E
:1057B800CF35BE5AA5DB955C8CDC8CBC84DC847A46
:1057C8006418743A741D7C3D84BF8CFF9D5F9DBF37
:1057D800ADFFB61FADFF9D9F851F643B5B995B576F
:1057E8005B595B794B195B3B6BDE7C3F7C9F849FED
:1057F800849F8C9E7C9E7C5D743A74375BB3633364
:105808007BD67BB574157B947BD573F463525310A8
:105818005AEF5A8D4A4E6314737352AC4A0C4A0DB0
:1058280042103A1252B86B3D5B7D5B3B429729D6DA
:1058380031797BBD951F953F953F849E7C7C641A8A
:1058480063B66BB76B356336739773D85376533536
:105858005AD3424F39ED312E41B34A964A79631DE6
:105868007C1F84BF9D3FA5BFA63F8D3F747F5BDD36
:10587800435A329529954B1A433B3A5942D9321724
:105888003A992A593A7C42DD745D95BC53FA42D85C
:105898003A763A763AB73AD94319531A5C3D43797E
:1058A8004B7A4AF83AF932B93A7B637D637D539E65
:1058B800535E5B1EBE5FBF1FB6BFAE9F855E9D7FFA
:1058C8009DDF8D9F6C7F9CDEC6FFBF1F74DE8D1F22
:1058D800847F643C6BDE847FB5FFB69FAE5F9D7F9F
:1058E800851FC6BFB6FFD6BFDF5FC6DFA61D7CB665
:1058F800BDFEA67C5B4C5ACB5AAA5AAA52AA526938
:1059080052A952A94A8852684A694A885288524814
:1059180052284A4842284A4742474A074A07420704
:10592800420641E641E741E639E639C639C539A6B6
:1059380039A63185398539856B0B630B6B4B6B2C1D
:105948006B2B6B2B6B2B6B2B6B2B6B4C634B73ABDE
:105958008C8C950C954C956B95CAAECBCFABE7CBA1
:10596800EFCDEFEDF7CCF7CCFFCBFFCAFFE9FFC8CF
:10597800FFC9FFE9FFC9FFC9FFC9FFE8FFE9FFEA5F
:10598800EFCED7D6BF5DAEBFA69FAEBEC6BDCEBB5F
:10599800C679A5BB8D5C84BE747C747C7CBE84BDDA
:1059A800745A6BF86379639A63FD743E7CBF8D1FEC
:1059B800951F951F957F9D9F951F7C5F5BBC5B9A8C
:1059C8004B3742F542954AD652F9633B5B5B635DC0
:1059D8004B3C4B3A4B19533973BA8C9C8CFC7C9AD0
:1059E800849863D46B9473748BF76B9373736B9312
:1059F80063925B0F4A6D4A4E5A926B325AF14A8E45
:105A08003A0B31EC4A3352363A56429753583AF4E5
:105A180029F1195239B7633D6C1F6C1E643C63F958
:105A28005BD76BF673D463745B1363345B344AB32C
:105A380052F33A90322D298B294B294E39B542BA67
:105A48004A9A6BBD7C3F84BF9D5F957F8D1F7CBE4E
:105A5800537C541E437A427A42FB4B7C433B31F7DA
:105A680042BA3B3B32193A9B4A9C94DFBF1F9E7E49
:105A7800545B42D852F9323642BB4B7C531C5B7C98
:105A88005B7C5BDC4B193A5742F93A3832384ADBCF
:105A98004B1C52FC6B1EC6BFC71FC73FAE9F84DEA0
:105AA800953F853F7CDF741EBE7FCF3FB6FF7C9E4F
:105AB8006BDE7C9E6BBC745E849EBE5FA5FF853FDB
:105AC800959FB57FC6FFA65EC6BFBEDFB65F95BD14
